S00D0000686D695F76312E733337A3
S113000000100020110200000D0200000D0200008B
S11300100D0200000D0200000D0200000D020000A0
S11300200D0200000D0200000D0200000D02000090
S11300300D0200000D0200000D0200004913000033
S11300400D0200000D0200000D0200000D02000070
S11300500D0200000D0200000D0200000D02000060
S11300600D0200000D0200000D0200000D02000050
S11300700D0200000D0200000D0200000D02000040
S11300800D0200000D0200000D0200000D02000030
S11300900D020000652600000D0200000D020000A4
S11300A00D0200000D0200000D0200000D02000010
S11300B00D0200000D0200000D0200000D02000000
S11300C00D0200000D0200000D0200000D020000F0
S11300D00D0200000D0200000D020000B50F00002B
S11300E00D0200000D0200000D0200000D020000D0
S11300F00D0200000D0200000D0200000D020000C0
S11301000D0200000D020000B12600000D020000E7
S11301100D0200000D0200000D0200000D0200009F
S11301200D0200000D0200000D0200000D0200008F
S11301300D0200000D0200000D0200000D0200007F
S11301400D0200000D0200000D0200000D0200006F
S113015010B5054C237833B9044B13B10448AFF3FD
S113016000800123237010BDDC1F0020000000006C
S11301701C87000008B5034B1BB103490348AFF3C8
S1130180008008BD00000000E01F00201C87000064
S1130190A3F5803A704700BF174B002B08BF134BE1
S11301A09D46FFF7F5FF00218B460F461348144A7E
S11301B0121A03F0F3F80E4B002B00D098470D4BA6
S11301C0002B00D098470020002104000D000D48AA
S11301D0002802D00C48AFF3008003F0ADF82000F3
S11301E0290002F0B9FB03F093F800BF00000800F7
S11301F0000000000000000000100020DC1F0020B0
S1130200D82700200000000000000000FEE70000E6
S113021008B500F053F8064B0649074A8B4201D350
S1130220FFF7BAFF52F8040B43F8040BF6E700BFDC
S113023000100020DC1F002024870000174AD2F899
S1130240943003F00703023B042B1FD8DFE803F0CC
S11302500620031A0800124B1B680AE0114BFBE747
S11302609368C3F30443073B072B14D80E4A52F890
S113027023300A4AD2F80001C0F304200130B3FB52
S1130280F0F07047094B1B685B08F2E7074BE3E7A4
S11302904FF40043EDE70023EBE700BF00400E40BE
S11302A00810002000100020E07F0000041000204F
S11302B0014B1868704700BF00100020044B054A2A
S11302C09A60D3F8882042F47002C3F888207047FB
S11302D000ED00E0000000004FF4004070474FF4D0
S11302E07A707047014B1868704700BF08100020EF
S11302F005490A681318054883428CBF4FF0FF3242
S11303000B601046704700BF0C100020000008204E
S1130310FEE7000010B51F28044604D9034840F244
S11303202F11FFF7F5FF0120A04010BD63800000EE
S1130330044BD3F84421D20703D4D3F8402110420C
S1130340FBD1704700400E4038B5C0F30322013A98
S113035003460E2A3AD8DFE802F040433939081B35
S11303601E212536292E391833001F4C0020C3F3D3
S1130370043508B1FFF7DCFF04F1424404F58014AE
S113038005EBC404A400216038BD184C0020EEE73E
S1130390174C0120EBE7174C1020E8E7164C4FF4FC
S11303A08070E4E7154C4FF48030E0E7144C81F0A2
S11303B001010020DBE7134C81F001010020D6E7A6
S11303C0114C0020D3E7114C0020D0E7BDE83840A1
S11303D00F4841F6D711FFF79BBF0E4C0020C6E72C
S11303E00D4C0020C3E700BFB0400E40C4400E4097
S11303F0E0400E40E8400E40EC400E40F0400E401D
S113040060410E4064410E40F0410E4050410E40A8
S11304100080000000400E40C0400E4008B5C0F30C
S11304200313013B0B2B00F2AB80DFE803F0060C57
S1130430101A2024282C668692A5534BD3F8000169
S1130440C0F3042008BD504BD3F81401F8E74E4B19
S1130450D3F80001C0F301600130FFF75BFF0138FE
S1130460F0E7494BD3F80C01C0F30820EAE7464B08
S1130470D3F81801F8E7444BD3F81C01F4E7424BD6
S1130480D3F80801F0E7414B98422AD00ED8A3F5DF
S1130490BA2398422BD003F57033984215D041F615
S11304A07B313B48FFF734FF0020CBE7394B9842C0
S11304B005D0394B98420ED0384B9842EFD1324B8D
S11304C0D3F82001C0F30230C7E72F4BD3F8200143
S11304D000F00F00C1E72C4BD3F82001C0F301203A
S11304E0BBE7294BD3F82001C0F30310B5E7264B33
S11304F0D3F82001C0F30340AFE7294B98420CD056
S113050003F5A11398420ED0264B984212D11E4BEC
S1130510D3F8280100F003009FE71B4BD3F8280110
S1130520C0F3011099E7184BD3F82801C0F3013048
S1130530043092E741F69F31B3E71B4B984205D153
S1130540114BD3F8300100F003007BE741F6AE31E4
S1130550A7E7164B984205D0154B984206D041F6B2
S1130560C6319EE7084BD3F85C01ECE7064BD3F8A1
S11305705C01C0F3014065E7034BD3F8040173E762
S113058041F6D3318DE700BF00400E4080161800BD
S11305900080000000362C0080262E0080002A00F7
S11305A090171C0090071A00A0091400B80032002C
S11305B0B900340008B5FFF731FF013008BD000071
S11305C008B500F00F0001380B2879D8DFE800F0F7
S11305D006111B2F25397843515F6B6F414BD3F8BC
S11305E0943003F00703023B052B76D83E4AD05CD7
S11305F030E03C4BD3F8803003F00703013B032B7E
S11306006DD83A4AF3E7374BD3F8843003F0070345
S1130610013B032B63D8364AE9E7324BD3F88830E1
S113062003F00703013B032B59D8324ADFE72D4B74
S1130630D3F88C3003F00703013B032B4FD82E4A29
S1130640D5E7284B1B6F13F0030340D0012B14BFD5
S11306500120092008BD234BD3F85C3103F030039B
S1130660202B36D0302B36D0102B14BF012007207E
S1130670F0E71C4BD3F85C3103F44013B3F5001FCF
S113068027D0B3F5401F26D0B3F5801FEDE7154BF7
S1130690D3F8600100F00300431E022B1DD800EBC9
S11306A040000130D6E70F4BD3F86401F2E70D4B5D
S11306B0D3F8F03103F00703052B10D80F4A96E75F
S11306C00F4841F62771FFF723FE0020C2E70720F9
S11306D0C0E70420BEE70820BCE70520BAE70120F4
S11306E0B8E700BF00400E40C9800000CF80000082
S11306F0D3800000CF800000CF800000D7800000AE
S11307000080000038B5314B984205460BD01ED806
S11307102F4B984207D02F4B9D4204D02E4841F2D4
S11307203A51FFF7F5FD2846FFF74AFF274B9D4254
S1130730044625D00DD8264B9D4211D0254B9D4211
S11307401AD0254841F26951FFF7E2FD0DE0234B31
S1130750E2E7224B9D42F4D1214BD3F8884002E0DA
S11307601F4BD3F8804004F00704042C27D8DFE89B
S113077004F0240B0F171300194BD3F88440F2E74D
S1130780174BD3F88C40EEE7BDE83840FFF7A4BD23
S1130790BDE83840FFF7A6BDBDE83840FFF79FBD70
S11307A0FFF74CFD0E4B0446D3F80001C0F3016083
S11307B00130FFF7AFFDB4FBF0F4204638BD064826
S11307C041F2BB51FFF7A4FD0024F6E70400220028
S11307D002001E0003002000008000000500240029
S11307E000400E4008B5012814BF12481248FFF714
S11307F0E7FE0138072816D8DFE800F01A151507B8
S11308001515040B0D4B186808BDBDE80840FFF72B
S11308104FBDFFF713FD0A4BD3F80031C3F3042394
S113082003FB0000F0E7074841F23331FFF770FDA6
S11308300020E9E7B8003200B900340010100020AD
S113084000400E400080000038B500F47813B3F582
S1130850E01F054600F0FC804CD8B3F5602F00F093
S1130860108123D8B3F5C02F00F0A1800DD8B3F5C3
S1130870003F00F0A880B3F5802F00F08D80002B9E
S113088000F0078141F6073109E1B3F5202F00F0AC
S11308909480B3F5402F00F09C80B3F5002FF1D184
S11308A0FFF7CCFCB14BD3F81C317AE0B3F5B01FA1
S11308B000F0AA800DD8B3F5901F00F09280B3F534
S11308C0A01F00F09880B3F5801FDBD1A84B1868F7
S11308D06CE0B3F5C01F00F0A580B3F5D01FD1D1F3
S11308E0A448FFF70FFFA14B0446D3F8280100F0FA
S11308F0030092E0B3F5401F00F0B48024D8B3F5B0
S1130900201F00F0BA800FD8B3F5001F00F09E80BE
S1130910B3F5101F00F0B380B3F5F01FB2D19648C1
S1130920BDE83840FFF7EEBEB3F5281F00F0848021
S1130930B3F5381FA6D19048FFF7E4FE8B4BD3F8EC
S11309402031C3F3012354E0B3F5601F00F0CF80DE
S113095013D8B3F5501F00F0A780B3F5581F00F06B
S1130960AC80B3F5481F8DD10020FFF73BFF7F4BD0
S1130970D3F85C3103F0030315E0B3F5681F00F00E
S1130980D080B3F5781F7FF47DAFFFF757FC0446A2
S11309902846FFF70FFE42E0FFF750FC734BD3F8F5
S11309A00C31C3F308230133B0FBF3F038BDFFF778
S11309B045FC6E4BD3F81831F3E7FFF73FFC6B4B64
S11309C0D3F80431EDE7FFF739FC684BD3F808316D
S11309D0E7E7FFF733FC654BD3F81431C3F3042383
S11309E0E1E76548FFF78EFE604BD3F82031C3F38F
S11309F00343D840DAE76148FFF784FE5B4BD3F842
S1130A00303103F00303F4E75B48FFF77BFE574BF9
S1130A100446D3F8200100F00F00FFF77BFCB4FB81
S1130A20F0F0C3E75448FFF76DFE504B0446D3F88B
S1130A302001C0F30310F0E74F48FFF763FE4B4B70
S1130A400446D3F82001C0F30230E6E7494867E7DB
S1130A504848FFF757FE454B0446D3F82801C0F336
S1130A600110DAE74348FFF74DFE404B0446D3F844
S1130A702801C0F301300430CFE7414850E73F4834
S1130A804EE74048FFF79CFD07283FF41FAF0928B5
S1130A9003D1BDE83840FFF7D1BB41F2FC213A480D
S1130AA0FFF736FC002081E70120FFF79BFE2F4B68
S1130AB0D3F85C31C3F3014375E73448FFF780FD95
S1130AC00438062810D801A353F820F0410B000085
S1130AD0510B0000E90A0000CD080000E90A0000FB
S1130AE0E90A00003D0B000041F25D31D7E72848D8
S1130AF0FFF766FD0438062810D801A353F820F048
S1130B00410B0000510B00001D0B0000CD0800003C
S1130B101D0B00001D0B00003D0B000041F28F3146
S1130B20BDE71C48FFF74CFD023809281AD8DFE856
S1130B3000F01115070F19191919050B164BC6E604
S1130B40BDE83840FFF7B4BBFFF7B2FB40002DE728
S1130B50124BBCE6BDE83840FFF7C4BBBDE83840E3
S1130B60FFF7BABB41F2E63199E700BF00400E40FF
S1130B70101000200300200002001E0005002400C5
S1130B800400220006000E00008000000A7B3600EC
S1130B900B7C38000C7F3A00141000200410002055
S1130BA0EFF31180602383F31188704780F3118879
S1130BB07047000038B5082804460D4604D84FF69F
S1130BC0FF73CB40DB0704D4064840F21341FFF720
S1130BD09FFB3020044B0121444301FA05F51D51CC
S1130BE038BD00BFDD8000000C80084638B50828F9
S1130BF004460D4604D84FF6FF73CB40DB0704D4FC
S1130C0006484FF47971FFF783FB3020044B012130
S1130C10444301FA05F51D5138BD00BFDD800000D5
S1130C200C8008442DE9F041082806460D46174675
S1130C30984604D84FF6FF73CB40DB0704D41F4813
S1130C4040F21D11FFF764FB37B129463046B8F175
S1130C50000F1DD0FFF7AEFF3024744304F180442D
S1130C60072D04F5082416D86368AA000F219140C3
S1130C7023EA010307FA02F213436360E7B9294642
S1130C803046B8F1000F13D0BDE8F041FFF792BF32
S1130C90FFF7ACFFE0E7A5F10803A2689B000F2172
S1130CA0994022EA010207FA03F31343A360E5E73C
S1130CB0BDE8F041FFF79ABFBDE8F0814181000033
S1130CC02DE9F04107460D461E4690461AB92D48B7
S1130CD0A921FFF71DFB1DB92B48FFF7B5FD0546FC
S1130CE0402E26D008D896B1202E19D0BDE8F04168
S1130CF02448E621FFF70CBB602EF7D1B8EB950F23
S1130D0003D92048E021FFF703FB04241AE0B8EBE1
S1130D10151F03D91B48D121FFF7FAFA102411E05B
S1130D20B8EBD50F03D91748D621FFF7F1FA0824F9
S1130D3008E00624B5FBF4F3434503D21148DB2154
S1130D40FFF7E6FA08FB04F46108DFF8408001EBE2
S1130D504515B5FBF4F4203CB8EBC40F4FEAC405C9
S1130D6003D20848FC21FFF7D3FA3B6823F0600361
S1130D703B603B6805EA08051E433E607D61BDE8B3
S1130D80F08100BFA581000040410500F8FF7F000D
S1130D9038B5164B984204460D4620D003F58063BF
S1130DA098421CD003F58063984218D003F5806301
S1130DB0984214D003F58063984210D003F5806301
S1130DC098420CD003F53053984208D003F5806361
S1130DD0984204D006484FF40A71FFF799FAEB439E
S1130DE05B0003F00A03E360E56038BD00000140E6
S1130DF0A581000038B51E4B1E4D984204461ED0F6
S1130E00A8421CD003F50063984218D003F5806310
S1130E10984214D003F58063984210D003F58063A0
S1130E2098420CD003F53053984208D003F5806300
S1130E30984204D0104840F26F31FFF769FA40F647
S1130E40AA63E36041F205020023236062600B4A57
S1130E50A3606361E364A264054A63679442A36781
S1130E60E36708BF2365AC42A36508BFE36538BDEB
S1130E700000014000040140A5810000F9FF0100C9
S1130E8038B52A4B984204460D4620D003F58063BA
S1130E9098421CD003F58063984218D003F5806310
S1130EA0984214D003F58063984210D003F5806310
S1130EB098420CD003F53053984208D003F5806370
S1130EC0984204D01A484FF41471FFF721FA2046CF
S1130ED0FFF790FFAB7C1BB1236843F08043236092
S1130EE0EB7C1BB12B7D43F08003A3652A8A6B7BCB
S1130EF01343EA8913436360D5E901122B7B20462F
S1130F00FFF7DEFEAB7DEA7D1B07120503F0E0432D
S1130F1002F4E002134323666B7D1BB1236843F4A0
S1130F20803323602B78E36038BD00BF00000140AC
S1130F30A581000003691B06FCD5C069C0B27047D7
S1130F4003695B06FCD54163704700207047FEE7E8
S1130F504FF400534B60002070470120704701207C
S1130F6070474FF0FF30704700207047F8B50C46CB
S1130F708F180E46BE42A6EB040505D1002D08BF0E
S1130F804FF0FF352846F8BD00F0A8F8431CF5D013
S1130F9006F8010BEEE770B50D4614460E46731BBA
S1130FA09C4201DC204670BD16F8010B00F0C2F82B
S1130FB0F5E7000038B50F4803691B0619D50E4C38
S1130FC02568FFF7B7FF0D4B58552368013323609D
S1130FD00B4B1A6801321A602268082A04BF0022E7
S1130FE022601A68082A04DD002222601A60054B78
S1130FF01A6038BD001001400C200020FA1F0020A8
S113100004200020082000200038024B18BF0120D3
S113101018707047F81F002030B589B02748284D54
S11310200121FFF791F927480121FFF78DF90422E7
S1131030114601230720FFF7F5FD002301220521B6
S11310400720FFF7EFFD0FCD01AC0FC495E80700B3
S113105084E807001C4C1D480121FFF775F90025A1
S113106001A920468DF80450FFF70AFF03236367A4
S1131070A26F22F4E06222F0070242F4806242F09E
S113108004020423A267A364114B8021C3F88411D2
S1131090E26C42F00402E264204659600521FFF745
S11310A077FE0C4B186802222B462946806802F012
S11310B0E9FD094B01221A7009B030BD4041050019
S11310C0D881000000550A000010014000B204005D
S11310D000E100E0001E0020F91F002010B5114BB4
S11310E01B780BB9FFF798FFFFF75AFD0E4A1368F8
S11310F0002B13DD0D4B0E4C1968645C196801312B
S113110019601968082904BF002119601368013B9C
S1131110E4B21360FFF74AFD204610BD4FF0FF34E0
S1131120F8E700BFF91F0020042000200820002059
S1131130FA1F002038B50E4B1B7804460BB9FFF795
S11311406BFF0C4D2B782BB10A2C03D10A480D21CF
S1131150FFF7F6FE08482146FFF7F2FE2B782BB185
S11311600D2C03D104480A21FFF7EAFE204638BDBE
S1131170F91F0020F81F002000100140074A4FF417
S113118000730021013B9BB202F8011B002BF9D133
S1131190034A1360034A1360704700BF18220020FB
S11311A0142000201C24002070B5002241F2573383
S11311B04AF273465C00DD0BA4B2C9B910204AF2AE
S11311C07342D90B5B009BB201B15340013880B22A
S11311D00028F6D1102101224FF40044234218BF05
S11311E01043520001394FEA540492B2F6D170BD53
S11311F0037813410132D2B2072A03F0010388BFF6
S113120001F1FF3143EA040382BF013089B20022B5
S1131210002DCFD07340CDE708B508480121FFF772
S113122093F80123042219461046FFF7FBFCFFF74D
S1131230F3FEBDE808400120FFF7E6BE00550A00B2
S113124030B589B01B4D0FCD01AC0FC495E8070034
S11312504FF4964384E80700174803930121FFF7EE
S113126073F81648164C0121FFF76EF8002301228B
S113127005210220FFF7D6FC042211460123022097
S1131280FFF7D0FC01A92046FFF7FAFD0D4B4FF400
S11312900012C3F880211A6040F20443A367636F0D
S11312A043F003036367E36C43F00403E36409B0AE
S11312B030BD00BFFC81000000550A00004E040050
S11312C00040014000E100E030B589B0194D0FCD78
S11312D001AC0FC495E8070084E807001648174CD2
S11312E00121FFF731F816480121FFF72DF80023FB
S11312F0012209210420FFF795FC04221046012352
S11313000821FFF78FFC01A92046FFF7B9FD0D4B1B
S11313104FF48022C3F884215A600023A367636FCB
S113132043F003036367E36C43F00403E36409B02D
S113133030BD00BFFC81000000550A0000140140CC
S113134000C2040000E100E0024A136801331360A4
S1131350704700BFB8240020034A116813685B1A61
S11313608342FBD3704700BFB8240020F0B4054685
S113137008460978144C09B9012B13D100231349E9
S1131380134E238023889A4204D8F0BC04220021FF
S113139002F004B80D786F1C0F70C75C77550133E9
S11313A02380EFE721800A4F084923889A42ECD929
S11313B00E7806F1010C81F800C015F803C007F897
S11313C006C001332380F0E760240020B127002009
S11313D0B125002038B5044608462146154601F0DB
S11313E0CFFF064B2544AC4201D1204638BD1A68D4
S11313F0511C196014F8011B1170F4E7C424002077
S113140070B5B44C00250A202560FFF7A5FF2368BA
S1131410012BF8D0B04CB14DE3792018742B28601F
S11314200ED1237A322B10D1637A312B40F07A819A
S1131430AB492022FFF7CEFFE3792860742B00D05C
S113144070BD237A322B00F06D81237A332B23D1A4
S1131450637A302B4AD1A34E286804223146FFF721
S1131460B9FF2860304601F04FFF01F0FDFE07EEA2
S1131470100AF2EE047A67EE277A17EE900AC0F3A8
S113148007633370C0F307437370C0F30723B3706B
S1131490E379F070742BD3D1237A322B26D1637A7B
S11314A0342BCDD1904E286804223146FFF792FFA9
S11314B02860304601F028FF01F0D6FE07EE100A3E
S11314C0F2EE047A67EE277A884B17EE900A01222F
S11314D01A70C0F307633370C0F307437370C0F32B
S11314E00723B370E379F070742BA9D1237A332BDB
S11314F0A6D1637A312B1ED17D4E28680422314651
S1131500FFF768FF2860304601F0FEFE01F0ACFEF4
S1131510784BF07001221A70C0F307633370C0F384
S113152007437370C0F30723B370E379742B87D137
S1131530237A332B84D1637A322B20D16E4E2868E0
S113154004223146FFF746FF2860304601F0DCFEF6
S113155001F08AFE694BF07001221A70C0F3076330
S11315603370C0F307437370C0F30723B370E37998
S1131570742B7FF465AF237A332B7FF461AF637AE6
S1131580332B20D15E4E286804223146FFF722FF18
S11315902860304601F0B8FE01F066FE594BF07049
S11315A001221A70C0F307633370C0F307437370EA
S11315B0C0F30723B370E379742B7FF441AF237A2C
S11315C0332B7FF43DAF637A342B20D14E4E286801
S11315D004223146FFF7FEFE2860304601F094FEF7
S11315E001F042FE494BF07001221A70C0F3076308
S11315F03370C0F307437370C0F30723B370E37908
S1131600742B7FF41DAF237A332B7FF419AF637AE5
S1131610352B20D13E4E286804223146FFF7DAFEEE
S11316202860304601F070FE01F01EFE394BF07068
S113163001221A70C0F307633370C0F30743737059
S1131640C0F30723B370E379742B7FF4F9AE237AE4
S1131650332B7FF4F5AE637A362B20D12E4E2868D7
S113166004223146FFF7B6FE2860304601F04CFEF6
S113167001F0FAFD294BF07001221A70C0F30763E0
S11316803370C0F307437370C0F30723B370E37977
S1131690742B7FF4D5AE237A332B7FF4D1AE637AE7
S11316A0372B7FF4CDAE1E4C286804222146FFF769
S11316B091FE2860204601F027FE01F0D5FDC0F31D
S11316C007632370C0F307436370C0F30723A37059
S11316D0E070B5E61C24002018220020C824002055
S11316E096240020252400203D24002041240020AD
S11316F0D9240020DD240020D0240020D42400207C
S1131700EB240020EF240020E2240020E624002023
S113171052240020562400205B2400205F24002053
S11317202D240020637A332B0DD17649286820229A
S1131730FFF750FEE3792860742B7FF481AE237A9F
S1131740322B7FF482AE637A322B0DD16E49286836
S11317502022FFF73FFEE3792860742B7FF470AEFC
S1131760237A322B7FF471AE637A352B25D1674E01
S1131770286804223146FFF72DFE2860304601F028
S1131780C3FD01F071FD07EE100AF2EE047A67EE74
S1131790277A17EE900AC0F307633370C0F3074348
S11317A07370C0F30723B370E379F070742B7FF484
S11317B047AE237A322B7FF448AE637A362B25D199
S11317C0534E286804223146FFF704FE2860304651
S11317D001F09AFD01F048FD07EE100AF2EE047ADA
S11317E067EE277A17EE900AC0F307633370C0F3ED
S11317F007437370C0F30723B370E379F070742B5D
S11318007FF41EAE237A322B7FF41FAE637A372B1C
S113181025D1404E286804223146FFF7DBFD2860BD
S1131820304601F071FD01F01FFD07EE100AF2EEE3
S1131830047A67EE277A17EE900AC0F307633370D1
S1131840C0F307437370C0F30723B370E379F070F8
S1131850742B7FF4F5AD237A322B7FF4F6AD637AE3
S1131860382B28D12C4E286804223146FFF7B2FDCC
S11318702860304601F048FD01F0F6FC07EE100A3E
S1131880F2EE047A67EE277A244B17EE900A0122CF
S11318901A70C0F307633370C0F307437370C0F367
S11318A00723B370E379F070742B7FF4C9AD237A06
S11318B0322B7FF4CAAD637A392B7FF4EDAD184E29
S11318C0286804223146FFF785FD2860304601F080
S11318D01BFD01F0C9FC07EE100AF2EE047A67EE74
S11318E0277A17EE900AC0F307633370C0F30743F7
S11318F07370C0F30723B370E379F070742B3FF473
S1131900A4AD9DE550250020102500207224002060
S11319104A240020B6270020C4270020BF27002027
S11319203524002010B52C4C2C4920680422FFF7E4
S113193051FD2B4920600422FFF74CFD294920600A
S11319400422FFF747FD284920600422FFF742FDE7
S1131950264920600422FFF73DFD2549206004222A
S1131960FFF738FD234920600422FFF733FD2249A5
S113197020600422FFF72EFD204920600422FFF797
S113198029FD1F4920600422FFF724FD1D49206022
S11319900422FFF71FFD1C4920600422FFF71AFDF3
S11319A01A4920600422FFF715FD1949206004221A
S11319B0FFF710FD174920600422FFF70BFD1649BD
S11319C020600422FFF706FD144920600422FFF77B
S11319D001FD206010BD00BFC4240020702500203C
S11319E0622400206A24002084250020662400202C
S11319F0BC240020902500208C250020C024002039
S1131A0042240020982500209C250020A0250020A9
S1131A10A4250020A8250020AC250020882500202E
S1131A2010B5314C314920682022FFF7D3FC3049EE
S1131A3020602022FFF7CEFC2E4920602022FFF7F1
S1131A40C9FC2D4920601022FFF7C4FC2B492060FB
S1131A500422FFF7BFFC2A4920600422FFF7BAFCE6
S1131A60284920600422FFF7B5FC2749206004229E
S1131A70FFF7B0FC254920600422FFF7ABFC2449A2
S1131A8020600422FFF7A6FC224920600422FFF70D
S1131A90A1FC214920600422FFF79CFC1F4920601F
S1131AA00422FFF797FC1E4920600422FFF792FCF2
S1131AB01C4920600422FFF78DFC1B49206004228E
S1131AC0FFF788FC194920600422FFF783FC1849BA
S1131AD020600422FFF77EFC164920600422FFF7F1
S1131AE079FC206010BD00BFC4240020F024002035
S1131AF0302500207624002074250020BB270020F8
S1131B006E24002046240020B2270020C027002095
S1131B10312400202124002039240020D524002051
S1131B20CC240020E7240020DE2400204E240020C2
S1131B3057240020292400202DE9F04104460D46B5
S1131B4090461E460027FBB2013718F80310E9B986
S1131B5023699906FCD52E44B5421BD123699A0604
S1131B60FCD522212046FFF7EBF9FF212046FFF7A1
S1131B70E7F9FF212046FFF7E3F9FF212046FFF7AD
S1131B80DFF923699B06FCD5BDE8F0812046FFF709
S1131B90D7F9D8E715F8011B2046FFF7D1F9DBE7A1
S1131BA002780346002062F31F605A7862F31740FC
S1131BB09A78DB7862F30F2063F307007047000024
S1131BC0F0B52DED028B85B00446084607EE903A39
S1131BD01646FFF7E5FF07EE100A87EE278A0C9FEB
S1131BE018EE100A01F0E8FA02460B4601A8224951
S1131BF002F00EF9FFEE007AB4EE678AF1EE10FA05
S1131C0006D0DFED1E7AB4EE678AF1EE10FA29D120
S1131C1005B0BDEC028BF0BD2046FFF791F9EBB2A5
S1131C200135F95C0029F7D123699906FCD501AD8A
S1131C300027B74218D123699A06FCD522212046F1
S1131C40FFF77EF9FF212046FFF77AF9FF212046AE
S1131C50FFF776F9FF212046FFF772F923699B0607
S1131C60FCD5D5E70025DAE715F8011B2046FFF778
S1131C7067F90137DDE700BFF48100000000C8C246
S1131C8013B5504B5049514800930522504B514CC9
S1131C90FFF796FF504B51494C48009305224FF0F3
S1131CA07E53FFF78DFF4E4B484800934D494FF04C
S1131CB07E530522FFF784FF2388D80608D54A4BB4
S1131CC000934A4941484FF07E530522FFF778FFBD
S1131CD0474B48493D48009305224FF07E53FFF798
S1131CE06FFF454B4549009338484FF07E5305221A
S1131CF0FFF766FF2388D90608D5414B0093414975
S1131D0032484FF07E530522FFF75AFF3E4B3F49BE
S1131D102E48009305224FF07E53FFF751FF3C4BB2
S1131D203C492A48009305224FF07E53FFF748FFB1
S1131D30394B3A492548009305224FF07E53FFF76B
S1131D403FFF374B3749214800930522364BFFF7B5
S1131D5037FF364B36491D4800930522324BFFF7B7
S1131D602FFF344B34491948009305222E4BFFF7BB
S1131D7027FF324B32491548009305222A4BFFF7BF
S1131D801FFF304B00930522274B2F490F48FFF7C5
S1131D9017FF2388DA0612D52C4B00932C49224BCB
S1131DA00A480522FFF70CFF2388DB0607D5294BD9
S1131DB0009329491C4B05480522FFF701FF02B097
S1131DC010BD00BF781C00207025002000140140C5
S1131DD0AE47813F942500208D1C00206224002002
S1131DE0A21C00206A240020B71C002084250020A7
S1131DF0CC1C002066240020701B0020BC24002082
S1131E00861B0020902500209C1B00208C25002090
S1131E10B21B0020C0240020C81B00204224002044
S1131E20DE1B00209825002000002041F41B002028
S1131E309C2500200A1C0020A0250020201C002036
S1131E40A4250020361C0020A82500204C1C0020BE
S1131E50AC250020621C00208825002013B5A04C6E
S1131E60A048228812F0080217BF9F4B9F4B009393
S1131E70002214BF4FF07E530093114608BF4FF069
S1131E807E53FFF79DFE2288964812F0040217BF86
S1131E90974B964B009300220ABF00934FF07E535A
S1131EA04FF07E531146FFF78BFE2388990608D521
S1131EB0904B009300228B484FF07E531146FFF75E
S1131EC07FFE23885A0608D58B4B00930022854851
S1131ED04FF07E531146FFF773FE23881B0608D587
S1131EE0864B009300227F484FF07E531146FFF744
S1131EF067FE2388D80508D5814B009300227948D2
S1131F004FF07E531146FFF75BFE2388990508D5F1
S1131F107C4B0093002273484FF07E531146FFF729
S1131F204FFE23885A0508D5774B009300226D484D
S1131F304FF07E531146FFF743FE23881B0508D557
S1131F40724B0093002267484FF07E531146FFF70F
S1131F5037FE2388D80408D56D4B009300226148CE
S1131F604FF07E531146FFF72BFE2388990408D5C2
S1131F70684B009300225B484FF07E531146FFF7F5
S1131F801FFE23885A0408D5634B0093002255484A
S1131F904FF07E531146FFF713FEB4F90030002BC7
S1131FA008DA5E4B009300224E484FF07E531146F0
S1131FB0FFF706FE5A4C4B48228812F0010217BF65
S1131FC0584B594B009300220ABF00934FF07E53A5
S1131FD04FF07E531146FFF7F3FD23889B0708D586
S1131FE0524B009300223F484FF07E531146FFF7B7
S1131FF0E7FD2388580708D54D4B00930022394844
S11320004FF07E531146FFF7DBFD2388190708D5EF
S1132010484B0093002233484FF07E531146FFF79C
S1132020CFFD2388DA0608D5434B009300222D48C0
S11320304FF07E531146FFF7C3FD23889B0608D556
S11320403E4B0093002227484FF07E531146FFF782
S1132050B7FD2388580608D5394B00930022214840
S11320604FF07E531146FFF7ABFD2388190608D5C0
S1132070344B009300221B484FF07E531146FFF768
S11320809FFD2388DA0508D52F4B009300221548BD
S11320904FF07E531146FFF793FD23889B0508D527
S11320A02A4B009300220F484FF07E531146FFF74E
S11320B087FD2388580508D5254B0093002209483D
S11320C04FF07E531146FFF77BFD2388190546D553
S11320D0204B0093002203484FF07E533CE000BFA6
S11320E09425002000140140E11C00201C10002055
S11320F01D1D00207C1000209213002014140020C9
S1132100BA13002026150020541000203316002096
S1132110911600201519002034190020621900209E
S1132120962500200A160020E5150020AC1D00208D
S11321308A1500205F160020B815002053150020D2
S113214031100020641D0020BD190020E713002079
S1132150491B00202B1B00201146FFF731FD23886B
S11321609A0408D5114B0093002211484FF07E5376
S11321701146FFF725FD23885B0408D50D4B00931A
S113218000220B484FF07E531146FFF719FDB4F9B6
S11321900030002B08DA084B0093002204484FF06B
S11321A07E531146FFF70CFD02B010BDFB1A002050
S11321B000140140931A0020C41A002013B5554C92
S11321C0554A564920462023FFF7B6FC2046544A78
S11321D054492023FFF7B0FC2046534A5349202397
S11321E0FFF7AAFC2046524A52491023FFF7A4FCE9
S11321F02046514A51490423FFF79EFC504B00935B
S11322002046504B50490422FFF7DAFC4F4B009311
S113221020464C4B4E490422FFF7D2FC4D4B009311
S11322202046484B4C490422FFF7CAFC4B4B009311
S11322302046444B4A490422FFF7C2FC494B009311
S11322402046404B48490422FFF7BAFC474B009311
S113225020463C4B46490422FFF7B2FC454B009311
S1132260204645494FF07E530422FFF7A9FC434B17
S11322700093204642494FF07E530422FFF7A0FC0E
S1132280404B0093204640494FF07E530422FFF711
S113229097FC3E4B009320463D494FF07E53042269
S11322A0FFF78EFC3B4B009320463B494FF07E5397
S11322B00422FFF785FC394B0093204638494FF040
S11322C07E530422FFF77CFC364B009320463649AC
S11322D04FF07E530422FFF773FC344B00932046E7
S11322E033494FF07E530422FFF76AFC0022314B3E
S11322F00093114620464FF07E53FFF761FC002205
S11323002D4B009311464FF07E532046FFF758FCA7
S113231002B010BD00140140481A0020F02400202F
S1132320611A002030250020A41900207624002002
S11323307A1A002074250020931D0020BB2700205A
S11323408B190020000020416E240020CA180020B0
S1132350462400204B1D0020B2270020D81D002059
S1132360C027002044180020312400201217002028
S113237021240020B118002039240020FD19002058
S1132380D5240020E4190020CC2400202F1A00209A
S1132390E7240020161A0020DE240020E318002081
S11323A04E240020FC180020572400202B18002065
S11323B0292400200C1200203B12002068B9094A8D
S11323C04FF40073013B9BB202F8010B002BF9D1CF
S11323D0054A1360054A13607047052801D1FEF7CA
S11323E0CDBE7047182000201020002018240020A3
S11323F070B51C4C00250A202560FEF7ADFF23684C
S1132400012BF8D0184E3568042D04D8BDE870406F
S11324100020FFF7D3BF154CA91E89B22046FEF752
S1132420C3FE2544C0F30F2315F8022C9A42EDD1C4
S113243015F8013CC0B28342E8D12278002AE5D1E4
S1132440B4F80130B3F5806F0AD1B4F80330084909
S113245032605BBA0B80B4F8053006495BBA0B8076
S113246070BD00BF18240020102000201820002078
S1132470942500209625002070B50B4C0B4E0023AC
S1132480054623802388AB4200D370BD33681BB15B
S1132490BDE87040FFF7ACBF0120FEF75DFF238865
S11324A003442380EEE700BF6024002018240020AA
S11324B02DE9F04704460123204F214E89469246D8
S11324C00D2104220020FEF7ADFB0020FFF776FF6C
S11324D03D6806EB0508745588F8029005F1040977
S11324E0044688F8010088F803A01FFA89F13046F1
S11324F0C7F80090FEF758FE0635030A3D60114DFB
S113250006F8093088F8050023463A685C1C9BB23B
S11325109A420DD80B4A13699B06FCD50020FFF79D
S11325204DFFBDE8F047034604220D21FEF77ABBB8
S1132530F15C2846FEF704FD2346E6E71020002060
S113254018200020004001402DE9F743374CDFF804
S11325500C91374FDFF80881364E0023054623706F
S1132560A9F80030B9F80030AB423BD23B68002BED
S113257052D0FFF73DFF2378B8F800200133DBB2D7
S1132580D207237031D4B278042A2ED12A4B1A7878
S11325902A4BFE201978FFF78BFF40F2EE20FFF75D
S11325A06BFF337863B9B378AC2B09D1244B254A3C
S11325B01A60FFF735FA03B0BDE8F043FFF7FEBD3C
S11325C00022214B2148009311464FF07E53FFF720
S11325D0F7FA1F4B009300221C484FF07E5311461C
S11325E0FFF7EEFA03B0BDE8F083062B14D1002206
S11325F0184B1648009311464FF07E53FFF7E0FA4C
S1132600154B009300224FF07E5310481146FFF7FC
S1132610D7FA00232370E5E70120FEF79DFEB9F801
S113262000300344A9F800309CE700BF20240020B8
S1132630182400201820002018100020F81D002065
S1132640C42400201B200020D410002000140140CA
S113265006110020381100207B1100206024002086
S11326609425002010B50D4B1A6C520712D5DB6966
S11326700B4A0C4CDBB213700B4A1068411CB1F5C9
S1132680007F235408BF0023116008BF1360074B69
S113269001221A60014B04229A6410BD00400140DB
S11326A0B02500201820002010200020182400202D
S11326B010B50D4B1A6C520712D5DB690B4A0C4C42
S11326C0DBB213700B4A1068411CB1F5007F235430
S11326D008BF0023116008BF1360074B01221A6072
S11326E0014B04229A6410BD00140140BA27002053
S11326F018220020142000201C24002008B1FEF71A
S113270053BD70472DE9F74F0446654E654DDFF81C
S113271038B2DFF838A2DFF838928846174601232A
S113272004220D210020FEF77DFA0020FFF746FE6B
S113273033785D49EC545A1CD2B20446A8549A1C0E
S1132740D2B205F802801A1D0333DBB23270EF54A3
S1132750202203465548DFF8FC81554FFEF706FE5C
S11327605449554823462022FEF700FE5349544855
S113277023462022FEF7FAFD5249534823460422F9
S1132780FEF7F4FD5149524823460422FEF7EEFDBC
S11327905049514823460422FEF7E8FD9BF80030D7
S11327A04E494F480422FEF7E1FD4E494E48234668
S11327B00422FEF7DBFD4D494D4823460422FEF773
S11327C0D5FD9AF800304B494B480422FEF7CEFD64
S11327D099F8003049494A480422FEF7C7FD494B9D
S11327E049491B7849480422FEF7C0FD484B494932
S11327F01B7849480422FEF7B9FD484B48491B7829
S113280048480422FEF7B2FD98F80030464947488C
S11328100422FEF7ABFD3B78454946480422FEF707
S1132820A5FD4549454823460422FEF79FFD33781C
S1132830434A019310681946FFF760FF019B020A9F
S1132840EA549A1C0133DBB23270E85432783D48C2
S1132850A3B29A421ED83B4A13699B06FCD50020BA
S1132860FFF7ACFD274A8BF800001070284A8AF85D
S113287000001070294A89F80000107003460422F1
S11328800D2188F800003870307003B0BDE8F04FB7
S1132890FEF7C8B915F8011BFEF752FB0134D5E762
S11328A0B1270020B125002010250020F0240020AD
S11328B05F2400205025002030250020962400208D
S11328C076240020722400206E2400204A24002054
S11328D046240020B6270020B2270020C427002069
S11328E0C027002035240020312400202524002086
S11328F0212400203D24002039240020D924002054
S1132900D5240020D4240020D0240020CC2400206E
S1132910EF240020EB240020E7240020E6240020FC
S1132920E2240020DE240020522400204E24002033
S11329305B240020572400202D240020292400207B
S1132940F41D002000400140BF2700204124002046
S1132950DD240020562400208FB54FF0804301224F
S11329605A6403F56423B349D3F8B02042F001025A
S1132970C3F8B020D3F8E02042F00802C3F8E02006
S11329804A6B42F480524A63D3F8E02022F00802F2
S1132990C3F8E020D3F8B02022F00102C3F8B0203D
S11329A0A54AD2F8A43143F4F843C2F8A431FEF79F
S11329B033FCFEF745FCFEF787FC0023184604228F
S11329C00D21FEF72FF99D48FDF73EFF4FF47A7372
S11329D0B0FBF3F00138B0F1807F80F066814FF0F6
S11329E0E023974A5861E02182F8231000229A617B
S11329F0944C07221A61944E944F3368002B3FD0B5
S1132A00FFF7F6FCFFF72AFA3B8813F45A5F32D03B
S1132A108F4D2A78002A2ED1AA78042A2BD1D907DF
S1132A2029D48C4B1A788C4BFE201978FFF740FD83
S1132A3040F2EE20FFF720FD2A78E2B9AB78442B70
S1132A4019D1864B039203351D60FEF76BFFFFF728
S1132A5017F9039A824B8348009311464FF07E5333
S1132A60FFF7AEF8039A804B00937E484FF07E53F5
S1132A701146FFF7A5F80020FFF7A0FCFEF77EFB48
S1132A807A4B1B68002BB8D0794DFEF7B9FC6B78F4
S1132A90022B19D1AB78232B40F05D810022754BBA
S1132AA07048009311464FF07E53FFF789F8724B3C
S1132AB06C48009300224FF07E531146FFF780F8D4
S1132AC04EF66020FFF740FD6B78032B40F0438106
S1132AD0AB78132B00F0EA80AB78152B56D100228B
S1132AE0644B6048009311464FF07E53FFF768F83B
S1132AF0614B009300224FF07E535A48DFF89881CF
S1132B00534F1146FFF75CF80023A8F800303368F0
S1132B10002B00F08581FFF76BFC2378BA78013332
S1132B20DBB2042A237040F06481484A5349128876
S1132B3009880A43D00700F15C81514B1A78514B44
S1132B40FE201978FFF7B4FC4FF4FA70FFF794FCF9
S1132B503A78002A40F03E81FB78042B40F03A8119
S1132B60494B009311464FF07E533E480392FFF7C2
S1132B7027F8464B039A00934FF07E533948114689
S1132B80FFF71EF86B78032B40F0E580AB78162B2B
S1132B9040F0E1800022374B3248009311464FF059
S1132BA07E53FFF70DF8344B009300224FF07E5311
S1132BB02C48DFF8E480254F254D1146FFF700F837
S1132BC00023A8F800303368002B00F05481FFF78D
S1132BD00FFC23783A880133DBB2D107237000F16C
S1132BE03D81AA78042A40F03981244A1288D20708
S1132BF040F13481224B1A78224BFE201978FFF7DA
S1132C0057FC4FF4FA70FFF737FC2A78002A40F09B
S1132C101681EB78042B40F012811D4B0093114672
S1132C204FF07E530F480392FEF7CAFF194B039AE5
S1132C30009333E00040054000300E407000020075
S1132C4000ED00E02024002018240020942500201A
S1132C501820002019100020FA1D0020C424002090
S1132C60A210002000140140BB1000201C240020EE
S1132C7018220020BE110020E51100209625002016
S1132C801A100020FC1D00205D1800208718002069
S1132C90BC160020E7160020602400204FF07E536D
S1132CA07C481146FEF78CFF55E0FEE700227A4B84
S1132CB07848009311464FF07E53FEF781FF774B1F
S1132CC0009300224FF07E537248DFF81C82744F49
S1132CD01146FEF775FF0023A8F800303368002B77
S1132CE06AD0FFF785FB23783A880133DBB2D20739
S1132CF023704AD4DFF8F49199F80220042A44D1CD
S1132D00684B1A78684BFE201978FFF7FBFC4FF4E8
S1132D10FA70FFF7B1FB99F800201ABB99F8033059
S1132D20042B1FD1614B5B48009311464FF07E5337
S1132D300392FEF745FF039A5D4B564800931146F4
S1132D404FF07E53FEF73CFF5A48FFF7FDFB6B78CC
S1132D50032B3FF4C1AE00202070FFF72FFBFEF7DA
S1132D600DFA48E60022544B0093114649484FF0AF
S1132D707E53FEF725FF514B0093002245484FF048
S1132D807E531146FEF71CFFE1E7062B14D1002207
S1132D904B4B4048009311464FF07E53FEF710FF13
S1132DA0484B009300224FF07E533A481146FEF7F9
S1132DB007FF00232370CAE70120FEF7CDFAB8F815
S1132DC0003003449BB24EF65F229342A8F80030D1
S1132DD084D9BCE700223C4B009311464FF07E534C
S1132DE02C48FEF7EDFE394B009300224FF07E5342
S1132DF0C4E6062B14D10022354B26480093114615
S1132E004FF07E53FEF7DCFE324B009300224FF06E
S1132E107E5320481146FEF7D3FE00232370B1E60B
S1132E200120FEF799FAB8F8003003449BB24EF63D
S1132E305F229342A8F800307FF669AEA2E6264BE3
S1132E40009300224FF07E5312481146FEF7B8FE5D
S1132E50224B009300224FF07E5321E7062B0AD128
S1132E601F4B009300224FF07E530A481146FEF791
S1132E70A7FE1C4BEDE70120FEF76EFAB8F8003010
S1132E8003449BB24EF65F229342A8F800303FF60B
S1132E9062AF98E600140140BE110020E511002045
S1132EA0942500201B100020FE1D00206A12002023
S1132EB0AC120020A0860100EE1200204013002076
S1132EC0381100207B1100203414002071140020DC
S1132ED0AD170020EC170020AE140020EA140020E7
S1132EE02B1700206C1700206024002018200020DD
S1132EF081F0004102E000BF83F0004330B54FEAA7
S1132F0041044FEA430594EA050F08BF90EA020F13
S1132F101FBF54EA000C55EA020C7FEA645C7FEAA6
S1132F20655C00F0E2804FEA5454D4EB5555B8BFC9
S1132F306D420CDD2C4480EA020281EA030382EA3A
S1132F40000083EA010180EA020281EA0303362DCC
S1132F5088BF30BD11F0004F4FEA01314FF4801C9F
S1132F604CEA113102D0404261EB410113F0004FB1
S1132F704FEA03334CEA133302D0524263EB430368
S1132F8094EA050F00F0A780A4F10104D5F1200E06
S1132F900DDB02FA0EFC22FA05F2801841F1000161
S1132FA003FA0EF2801843FA05F359410EE0A5F135
S1132FB020050EF1200E012A03FA0EFC28BF4CF066
S1132FC0020C43FA05F3C01851EBE37101F000451C
S1132FD007D54FF0000EDCF1000C7EEB00006EEB29
S1132FE00101B1F5801F1BD3B1F5001F0CD34908B3
S1132FF05FEA30004FEA3C0C04F101044FEA44520A
S113300012F5800F80F09A80BCF1004F08BF5FEA90
S1133010500C50F1000041EB045141EA050130BD70
S11330205FEA4C0C404141EB0101013C28BFB1F582
S1133030801FE9D291F0000F04BF01460020B1FACD
S113304081F308BF2033A3F10B03B3F120020CDAA0
S11330500C3208DD02F1140CC2F10C0201FA0CF07E
S113306021FA02F10CE002F11402D8BFC2F1200CE3
S113307001FA02F120FA0CFCDCBF41EA0C01904099
S1133080E41AA2BF01EB0451294330BD6FEA0404E2
S11330901F3C1CDA0C340EDC04F11404C4F12002CD
S11330A020FA04F001FA02F340EA030021FA04F3DF
S11330B045EA030130BDC4F10C04C4F1200220FA36
S11330C002F001FA04F340EA0300294630BD21FA74
S11330D004F0294630BD94F0000F83F4801306BF3A
S11330E081F480110134013D4EE77FEA645C18BF2E
S11330F07FEA655C29D094EA050F08BF90EA020FC5
S113310005D054EA000C04BF1946104630BD91EABC
S1133110030F1EBF0021002030BD5FEA545C05D1BF
S11331204000494128BF41F0004130BD14F58004FE
S11331303CBF01F5801130BD01F0004545F0FE4172
S113314041F470014FF0000030BD7FEA645C1ABFA7
S1133150194610467FEA655C1CBF0B46024650EADE
S1133160013406BF52EA033591EA030F41F400210A
S113317030BD00BF90F0000F04BF0021704730B590
S11331804FF4806404F132044FF000054FF0000165
S113319050E700BF90F0000F04BF0021704730B526
S11331A04FF4806404F1320410F0004548BF4042FB
S11331B04FF000013EE700BF42004FEAE2014FEA50
S11331C031014FEA02701FBF12F07F4393F07F4F2B
S11331D081F06051704732F07F4208BF704793F02E
S11331E07F4F04BF41F40021704730B54FF4607441
S11331F001F0004521F000411CE700BF50EA010244
S113320008BF704730B54FF000050AE050EA0102EC
S113321008BF704730B511F0004502D5404261EB5C
S113322041014FF4806404F132045FEA915C3FF49D
S1133230D8AE4FF003025FEADC0C18BF03325FEA3A
S1133240DC0C18BF033202EBDC02C2F1200300FAEB
S113325003FC20FA02F001FA03FE40EA0E0021FA10
S113326002F11444BDE600BF4FEA4102B2F1E0436B
S113327024BFB3F5001CDCF1FE5C0DD901F0004C59
S11332804FEAC0024CEA5070B2F1004F40EB8300A9
S113329008BF20F00100704711F0804F21D113F1D5
S11332A03872BCBF01F00040704741F480114FEA0E
S11332B05252C2F11802C2F1200C10FA0CF320FA97
S11332C002F018BF40F001004FEAC1234FEAD323B4
S11332D003FA0CFC40EA0C0023FA02F34FEA43031E
S11332E0CCE77FEA625307D150EA01331EBF4FF0A7
S11332F0FE4040F44000704701F0004040F0FE40C2
S113330040F40000704700BF002101F0C7BB00007B
S113331008B5074B044613B10021AFF30080054BF9
S11333201868836A03B198472046FDF710FE00BF72
S1133330000000001882000070B50D4D0D4C641B98
S1133340A4100026A64209D10B4D0C4C04F03CFEFF
S1133350641BA4100026A64205D170BD55F8043B99
S113336098470136EEE755F8043B98470136F2E7F3
S1133370D41F0020D41F0020D41F0020D81F0020F9
S11333800A44914200F1FF3300D1704710B511F89F
S1133390014B03F8014F9142F9D110BD0244034699
S11333A0934200D1704703F8011BF9E72DE9F04778
S11333B088B0002B1D461446BCBF03F100431446DD
S11333C0129A109EDDF84CA0B6BF1D4600232D2393
S11333D01370149B23F02008B8F1460F05D0B8F100
S11333E0450F00D10136022300E0032307AA04920B
S11333F006AACDE902A2CDE9003622462B4601F009
S1133400E7FBB8F1470F074602D1119BDB0722D532
S1133410B8F1460F07EB060910D13B78302B0AD1DF
S1133420002200232046294604F008FD18B9C6F1FD
S11334300106CAF80060DAF800309944002200233B
S11334402046294604F0FAFC08B1CDF81C9030223D
S1133450079B4B4507D3079B159ADB1B3846136024
S113346008B0BDE8F087591C07911A70F0E7F7B56A
S113347003460029B8BF494203F8022BB4BF2D22EA
S11334802B22092942702ADD0DF10704A4460A27DC
S1133490A6460A4691FBF7F607FB16153035632A54
S11334A004F1FF340EF8015C3146F1DC3031AEF149
S11334B0020504F8011C441C294661450AD30DF198
S11334C00902A2EB0E02654588BF00221344181AB4
S11334D003B0F0BD11F8012B04F8012FEDE7302300
S11334E030318370C170031DF1E700002DE9F04F06
S11334F02DED028B91B00C46DDF8708016461F4608
S1133500054602F079FED0F800A0504600F0A0FC79
S113351000230E9323680993D8F8003094F818B068
S1133520073323F0070303F10802C8F80020D3E9A6
S11335300023C4E91223D4E9128929F000430B9330
S1133540CDF8288008EE100AA04BDDE90A014FF0FF
S1133550FF3204F0A5FC88BBDDE90A019B4B4FF068
S1133560FF3204F07FFC48BB00220023404649465A
S113357004F06EFC10B12D2384F84330944B95482D
S1133580BBF1470F94BF9846804603232361099BF0
S113359023F0040323604FF00009009733460FAA79
S11335A02146284600F0DAF9013040F092804FF0CD
S11335B0FF3011B0BDEC028BBDE8F08F42464B46A4
S11335C04046494604F06CFC40B14B46002BBCBF5E
S11335D02D2384F843308048804BD1E763685A1C1C
S11335E00BF0DF0143D1062363600022099B06929E
S11335F00EAACDE904B20DAA43F4806303920DF13F
S11336003302CDE9013223606368009342464B469E
S113361028460A91FFF7CAFE0A99472980460D9960
S113362008D1C81C02DB6368994240DDABF1020B90
S11336305FFA8BFBBBF1650F1FD801395A4604F1C1
S113364050000D91FFF713FF0E9A1318012A8146BB
S1133650236102DC2268D20701D5013323619DF87E
S11336603330002B99D02D2384F8433095E7472934
S1133670BBD1002BB9D10123B6E7BBF1660F18D13A
S1133680002963680BDD216113B92268D00702D5D4
S113369001330B442361A1654FF00009DFE713B93F
S11336A02268D20701D50233F4E70123F2E74FF091
S11336B0670B0E9B994205DB23682161D807EAD585
S11336C04B1CE7E70029D4BFC1F1020201221344D5
S11336D0E0E723685A0507D4236942463146284661
S11336E0B84701302CD162E7BBF1650F40F2E080AE
S11336F0D4E912010022002304F0A0FB002834D0F6
S1133700374A012331462846B84701303FF44FAFCA
S1133710DDE90D239A4202DB2368D80710D518EEA1
S1133720103A524631462846B84701303FF43FAF7D
S11337304FF0000804F11A090E9B013B434509DCD4
S113374023689B0700F10581E0680F9B9842B8BF8E
S113375018462EE701234A4631462846B847013029
S11337603FF425AF08F10108E6E70D9B002B39DC97
S11337701B4A012331462846B84701303FF417AFAE
S1133780DDE90D23134302D12368D907D8D518EEF8
S1133790103A524631462846B84701303FF407AF45
S11337A04FF0000904F11A0A0D9B5B424B4501DC02
S11337B00E9B92E70123524631462846B847013012
S11337C03FF4F5AE09F10109EEE700BFFFFFEF7F1B
S11337D01C82000020820000288200002482000055
S11337E02C8200000E9AA36D9A42A8BF1A46002AA2
S11337F0914637DC4FF0000B29EAE97904F11A020B
S1133800A36D0993A3EB09035B4533DCDDE90D23C9
S11338109A423BDB2368DA0738D40E9B099A0D9948
S11338209A1AA3EB01099145A8BF9146B9F1000F7B
S113383035DC4FF0000829EAE97904F11A0ADDE9D8
S11338400D239B1AA3EB090343457FF779AF0123AB
S1133850524631462846B84701303FF4A8AE08F135
S11338600108ECE71346314642462846B847013082
S1133870C0D19CE60123314628460992B84701305D
S11338803FF495AE099A0BF1010BB9E718EE103A23
S1133890524631462846B8470130BED187E6099AD8
S11338A04B46424431462846B8470130C1D17EE6F2
S11338B00E9A012A01DCDB0738D501234246314642
S11338C02846B84701303FF472AE18EE103A52461B
S11338D031462846B84701303FF469AED4E91201B5
S11338E00022002304F0AAFAD8B90E9B08F10102C1
S11338F0013B31462846B84701300ED157E6012333
S1133900524631462846B84701303FF450AE08F1DC
S113391001080E9B013B4345F1DC4B4604F1500288
S1133920DCE64FF0000804F11A0AF2E701234246EC
S1133930DFE701234A4631462846B84701303FF4C1
S113394036AE08F10108E3680F995B1A4345F0DCD1
S1133950FAE64FF0000804F11909F4E72DE9F047FD
S1133960164699468A680B69DDF820809342B8BFF1
S11339701346336091F8432007460C460AB10133DD
S113398033602368990642BF336802333360256885
S113399015F0060506D104F1190AE36832689B1A8A
S11339A0AB4226DC94F84320131E226818BF01237F
S11339B092062BD404F1430249463846C0470130ED
S11339C01ED02368E568326803F00603042B08BFA1
S11339D0AD1AA36822690CBF25EAE5750025934258
S11339E0C4BF9B1AED1800261A34B5421AD1002020
S11339F008E00123524649463846C047013003D106
S1133A004FF0FF30BDE8F0870135C6E7E1185A1CD6
S1133A10302081F84300224494F8451082F8431082
S1133A200233C7E70123224649463846C0470130DE
S1133A30E6D00136D9E700002DE9FF470F7E0C9D43
S1133A40782F914680460C469A4601F1430207D8E6
S1133A50622F0AD8002F00F0D880582F00F0A380DE
S1133A6004F1420584F842703AE0A7F16303152B90
S1133A70F6D801A151F823F0D13A0000E53A00004C
S1133A80613A0000613A0000613A0000613A0000C6
S1133A90E53A0000613A0000613A0000613A000032
S1133AA0613A0000F13B0000153B0000D33B0000ED
S1133AB0613A0000613A0000133C0000613A0000E2
S1133AC0153B0000613A0000613A0000DB3B000056
S1133AD02B681A1D1B682A6004F1420584F84230E1
S1133AE00123A3E020682968060601F104030AD52E
S1133AF00E682B60002E03DA2D23764284F84330BF
S1133B005E480A2319E00E682B6010F0400F18BFBE
S1133B1036B2EFE72B682068191D2960010601D52C
S1133B201E6802E04606FBD51E8854486F2F0CBF62
S1133B3008230A23002184F843106568A560002D3A
S1133B40A2BF216821F0040121600EB9002D4DD0DF
S1133B501546B6FBF3F103FB1167C75D05F8017D5C
S1133B603746BB420E46F4D9082B0BD12368DE0737
S1133B7008D5236961689942DEBF302305F8013C0A
S1133B8005F1FF35521B2261CDF800A04B4603AA74
S1133B9021464046FFF7E2FE01304CD14FF0FF30A2
S1133BA004B0BDE8F087354881F84570296823687A
S1133BB051F8046B29601D0614D5DF0744BF43F098
S1133BC0200323601EB9236823F0200323601023FD
S1133BD0B0E7236843F0200323607823284884F85F
S1133BE04530E3E7590648BFB6B2E6E71546BBE7FA
S1133BF02B6826686169181D286035061B6801D585
S1133C00196002E07006FBD5198000232361154674
S1133C10BAE72B681A1D2A601D68626800212846CD
S1133C2002F076FB08B1401B6060636823610023E7
S1133C3084F84330A8E723692A4649464046D047DA
S1133C400130ABD023689B0713D4E068039B9842F0
S1133C50B8BF1846A4E70123324649464046D04738
S1133C6001309BD00135E36803995B1AAB42F2DC67
S1133C70EBE7002504F11906F5E700BF2E820000EA
S1133C803F8200002DE9F7431D465D4B1F68044643
S1133C900E46904627B1BB6913B9384601F0A0FE21
S1133CA0584B9C4267D17C68B8F1020F06D0B8F13A
S1133CB0010F00F29F80002DC0F29C80636EDB0731
S1133CC005D4A389980502D4A06D02F09AFA21467E
S1133CD0384601F0F1FD616B41B104F144039942AE
S1133CE002D0384603F032F8002363630023A36153
S1133CF06360A389190603D52169384603F026F8C1
S1133D00A38923F44A6323F00303B8F1020FA381C8
S1133D106CD001AB6A462146384602F074FAA38996
S1133D201843A081002D30D1009D284602F0D0FA1E
S1133D300646002855D1DDF80090A9454AD14FF038
S1133D40FF350022A26004F14702226022610122B1
S1133D50B4F90C306261626E43F00203D207A381AE
S1133D6005D413F4007F02D1A06D02F04BFA28466B
S1133D7003B0BDE8F083244B9C4201D1BC6893E7B7
S1133D80224B9C4208BFFC688EE7002ECDD0BB6955
S1133D9013B9384601F024FEB8F1010F08BFA38916
S1133DA0266004BF43F00103A381A28912F0080333
S1133DB0C4E904651CD0D30741BF00236D42A3604E
S1133DC0A56158BFA560656E15F0010515D112F403
S1133DD0007FC8E7484602F07BFA06460028AED0CA
S1133DE04D46A38943F08003A381D0E70025A8E7CB
S1133DF0A360E8E74FF0FF35B9E70025B7E700BF58
S1133E00001E00207483000094830000548300008B
S1133E100EB400B59CB01DAB029006906FF000414B
S1133E20094807910491094953F8042B0591006846
S1133E30019302A903F0C6F8029B00221A701CB079
S1133E405DF804EB03B07047001E00200802FFFF7A
S1133E50034613F8012B002AFBD1181A01387047C6
S1133E602DE9F0410F46904602F014FE04460D463B
S1133E70B8F1000F11D0C7F30A53C3F16B03002B41
S1133E800BDD1B0503F17F55002405F54015224683
S1133E902B4603F06BFD04460D4620462946BDE83B
S1133EA0F0810000000000002DE9F04F2DED048B9F
S1133EB09DB01F4600231893A14B13921B680593D2
S1133EC0044618468846FFF7C3FF4FF0000A05462C
S1133ED04FF0000BCDF85C80179B1A782B2A4CD03E
S1133EE039D80D2A32D8082A32D8002A3CD00023E7
S1133EF00A93179E3378302B40F0AE80737803F02A
S1133F00DF03582B66D10A9B019318AB02970093E9
S1133F108C4A19AB17A9204601F066FE10F007077A
S1133F20054605D0062F2AD10136002317960A9399
S1133F30139B002B40F084850A9BDBB150460BF1A8
S1133F4000411DB0BDEC048BBDE8F08F202ACED11A
S1133F5001331793C0E72D2AC9D101220A925A1CB2
S1133F6017925B78002BC4D1139BCDF85C80002B97
S1133F7040F0648550465946E3E70022EEE7189A7C
S1133F803AB135211AA802F087FE1899204602F0AA
S1133F904FFA013F042F06D8DFE807F00A0314178D
S1133FA00A00DDE91AAB2807C2D54BF0004BBFE786
S1133FB0DDE91AA3199A23F4801302F2334243EA87
S1133FC0025BF0E7DFF880B1EDE76FF0004B4FF0F4
S1133FD0FF3AE8E7179B5A1C17925B78302BF9D00D
S1133FE0002BA5D001234FF000090493179B0893DD
S1133FF0CDF81C904F460A2217980678A6F1300394
S1134000D9B209292AD905992A4603F034F998B373
S1134010002032463D4605900346652A01D0452AD4
S113402018D11DB9049A02439ED00025DDF85C80A6
S113403008F10102179298F801202B2A75D02D2A35
S11340407BD04FF0000CA2F13001092940F28280AC
S1134050CDF85C8000269DE00023C4E7082FD8BF7C
S1134060079900F10100DABF02FB0133079302FB59
S1134070093901371790BFE7179B5A1917925A5DF0
S1134080002F37D005903D46A2F13003092B12D9F9
S11340900123C2E7179B5A1C17925A780130302A21
S11340A0F8D0A2F13103082B00F2CF84179B0590BE
S11340B0002008930546303A00F1010314D0059915
S11340C0194405912B4600EB050E0A21734513D1C3
S11340D02B18082B05F1010505441CDC07990A235C
S11340E003FB012307930023179A511C179152785D
S11340F01846C9E73846D2E7082B04DC079E4E432E
S113410007960133E2E703F1010CBCF1100FD8BFAD
S113411001FB09F9F5E7102DDCBF0A2303FB09298C
S1134120E1E70023059301237CE74FF0000C08F13D
S11341300202179298F8022085E74FF0010CF6E787
S11341403C840000508200000000F07F179A511C4C
S113415017915278302AF9D0A2F1310108293FF69B
S113416079AFA2F1300E179A0692179A511C179143
S11341705278A2F13006092E37D9069E891B0829E8
S113418044F61F6602DC7645A8BF7646BCF1000FF4
S113419000D07642002D4DD1049901437FF4C8AE7E
S11341A0002B7FF4E1AE692A27D024DC492A24D0ED
S11341B04E2A7FF4D9AE9E4917A801F06DFF00285E
S11341C03FF4D2AE179B1B78282B2DD199491AAAFC
S11341D017A801F075FF052826D11B9BDDF868A000
S11341E043F0FF4B4BF4E00BA2E60A2101FB0E2E39
S11341F0AEF1300EB9E76E2ADBE78F4917A801F05C
S11342004BFF00283FF4B0AE179B8C49013B17A825
S1134210179301F041FF10B9179B01331793DFF88F
S11342202CB24FF0000A83E6854802F0CBFF8246A9
S11342308B467DE6059B0798F31A002F08BF2F468F
S1134240102D0693A846A8BF4FF01008FEF792FF62
S1134250092D82468B4613DD7A4B03EBC80353E9E1
S1134260122303F083FB824648468B46FEF782FF07
S113427002460B4650465946FEF740FE82468B46A0
S11342800F2D36DC069B002B3FF452AE22DD162B9D
S113429009DC6C4901EBC301D1E9000152465B46DC
S11342A003F064FBC3E7069AC5F12503934220DBC0
S11342B0644CC5F10F0504EBC50152465B46D1E9D8
S11342C0000103F053FB069B5D1B04EBC504D4E91A
S11342D00023E5E7069B16330BDB059B9E1B594B1E
S11342E003EBC606D6E900235046594603F068FCA2
S11342F09DE7069AA5EB080303EB0208B8F1000F4B
S113430074DD18F00F030AD04E4901EBC301524685
S11343105B46D1E9000103F029FB82468B4638F065
S11343200F084FD0B8F59A7F22DD0025A9460795DE
S113433005952223DFF814B123604FF0000A079B90
S1134340002B3FF4F5AD1899204602F071F8059959
S1134350204602F06DF84946204602F069F80799B4
S1134360204602F065F82946204602F061F8DFE5B0
S1134370354B049300234FEA281850465946994672
S1134380B8F1010F21DC0BB182468B462E4BABF109
S1134390547B03EBC90952465B46D9E9000103F09B
S11343A0E5FA2A4B0A460B4029498B428246BCD87F
S11343B0A1F580118B4286BFDFF898B04FF0FF3A29
S11343C002F1547B0023049383E018F0010F05D01D
S11343D0049BD3E9002303F0C9FA0123049A0832A9
S11343E009F101094FEA68080492C9E7EAD0C8F163
S11343F0000818F00F020AD0124B03EBC203504618
S11344005946D3E9002303F0DBFB82468B465FEA7F
S11344102818D7D0B8F11F0F1EDD0025A94607952F
S1134420059522234FF0000A4FF0000B236086E726
S1134430298200006482000021820000A38200001F
S113444018860000F8840000D08400000000F07F8B
S11344500000A07CFFFFEF7F18F0100318BF6A2351
S1134460DFF8AC93049350465946002318F0010F2B
S113447004D0D9E9002303F079FA01235FEA68083C
S113448009F10809F2D10BB182468B46049BC3B1F2
S1134490CBF30A52C2F16B03002B594611DD1F2BDB
S11344A040F32181342BDEBFC2F14B024FF0FF33C6
S11344B003FA02F24FF0000ACCBF4FF05C7B02EA31
S11344C0010B002200235046594603F0B7FC002894
S11344D0A3D1079B009308992B463A46204602F045
S11344E00FF8079000283FF420AF059B9E1B069B06
S11344F0002BB4BF334600230C93069B002523EA0C
S1134500E3731293A946079B2046596801F050FFB4
S1134510059000283FF40DAF079B1A69023203F19E
S11345200C0192000C30FEF72BFF1AAB019319AB70
S1134530009352465B46204602F026FB4BEC18AB38
S1134540189000283FF4F5AE0121204602F072F8DD
S1134550814600283FF4EDAE199E1A9A002EABBF97
S11345600C9B129B129FDDF83080ACBF06EB030856
S11345709F1B049BF61A1644A04B013E9E42C2F1B7
S1134580360280F2C3809B1B1F2BA2EB03024FF069
S1134590010100F3AF8001FA03F30D9300230893A4
S11345A008EB0206049BB04517441F444346A8BFCA
S11345B03346BB42A8BF3B46002BC2BFF61AFF1AC4
S11345C0A8EB03080C9B002B17DD49461A4620462E
S11345D002F0F0F8814600283FF4ABAE0146189A89
S11345E0204602F03DF80B9000283FF4A2AE189943
S11345F0204601F01DFF0B9B1893002E00F38B80C7
S1134600069B002B08DD129A0599204602F0D2F889
S1134610059000283FF48DAE002F08DD05993A4639
S1134620204602F021F9059000283FF482AEB8F14B
S1134630000F08DD49464246204602F015F981463E
S113464000283FF476AE059A1899204602F098F9AE
S1134650054600283FF46DAEC3680B930023C36086
S1134660494602F071F900285FDA0B9B53EA0A030A
S113467040F08380CBF31303002B7ED12BF0004357
S11346801B0D1B05B3F1D66F77D96B6913B92B6971
S1134690012B72DD29460122204602F0E5F8494645
S11346A0054602F051F9002867DD0499544A5B4637
S11346B0002900F0838002EA0B01B1F1D66F7DDCA2
S11346C0B1F15C7F7FF7ADAE4E4B504659460022A8
S11346D003F04CF90B46034308BF222382468B4662
S11346E008BF23602FE64FF0FF3202FA03F303EA18
S11346F00A0AE6E6C6F17F4606F57F0606F57B461E
S1134700E23601FA06F308930D9149E70023089372
S113471001230D9344E718993246204602F0A4F889
S1134720189000287FF46CAF03E6D84672D10B9A38
S1134730CBF3130352B3344A93422AD1049B514618
S1134740FBB12F4B0BEA0303B3F1D46F4FF0FF32ED
S11347501AD81B0DC3F16B0302FA03F3994218D163
S11347602A4B984502D101313FF4E3AD244B08EACA
S1134770030303F5801B4FF0000A049B002BA3D115
S1134780E1E54FF0FF33E9E71346E7E753EA0A03AD
S11347908BD0089BE3B113EA080FEED00B9B049A6D
S11347A050465946C3B1FFF75BFB02460B4651EC3A
S11347B0180BFEF7A3FB82468B46DEE71340A3F5F6
S11347C080136FEA135B6FEA0B5B4FF0FF3AD4E799
S11347D00D9B13EA0A0FE0E7FFF742FB02460B4684
S11347E051EC180BFEF788FB0022002382468B460F
S11347F003F024FB0028C0D013E600BF02FCFFFF37
S11348000000F07F00005039FFFF0F00FFFFEF7F33
S1134810788200004946284602F010FA00224FF040
S1134820804306460F4603F01DFB002879D00B9BFE
S1134830002B4BD0924B0022CDE90823904F002649
S1134840904B08EA03030D930D9A8F4B9A4240F064
S1134850B0809DED087BA8F1547B50465946B0EEDC
S1134860479AF0EE679A02F015F902460B4651ECAE
S1134870190B03F07BF852465B46FEF73FFB0B46F1
S11348808049824A1940914282465ED918EE903A94
S113489002F15472934204D118EE103A01333FF4FA
S11348A048ADDFF8F4B14FF0FF3A1899204601F013
S11348B0BFFD0599204601F0BBFD4946204601F0A5
S11348C0B7FD2946204601F0B3FD1CE6BAF1000FFE
S11348D01AD1CBF31303F3B9694B0022304639469E
S11348E003F0B6FAD0B930463946694B002203F0DA
S11348F03DF806460F4607F1004314961593DDE98B
S11349001423CDE908239BE7BAF1010F03D1BBF1CE
S1134910000F3FF486AD5F4B00228DE75C4F00260D
S1134920E9E75B4B30463946002203F01FF80B9B46
S113493006460F4633B901F100430E900F93DDE9AB
S11349400E23DEE7CDE90E67F9E703F1547B049B00
S1134950002BAAD12BF000430D9A1B0D1B059A4284
S1134960A3D13046394603F0F9FAFEF74FFC02466C
S11349700B4630463946FEF7BFFA0B9ACBF31303C6
S113498043EA0A03134306460F4651D034A3D3E93E
S1134990002303F05DFA00287FF4D5AC32A3D3E9F9
S11349A000233046394603F071FA00283FF47DAF06
S11349B0C9E4049B33B30D9BB3F1D46F22D82CA369
S11349C0D3E900233046394603F04CFAA0B1394606
S11349D0304603F0A3FA012838BF0120FEF7CAFBD2
S11349E00B9B06460F4603BB01F100431090119345
S11349F0DDE91023CDE90823099B0D9A03F1D66361
S1134A009B1A099351EC180BDDE908AB02F042F84C
S1134A1002460B465046594602F0A8FF53EC182BA9
S1134A20FEF76CFA82468B4691E7CDE91067DFE723
S1134A3011A3D3E9002303F00BFAB6E700230A938A
S1134A40139A179B1360FFF777BA652A3FF469AB93
S1134A50452A3FF466AB0123FFF79EBBAFF300800A
S1134A609535A094FFFFDF3F35E5AF350000E03F0B
S1134A700000C0FFFFFFDF419535A094FFFFCF3F4B
S1134A800000F03F0000F07F0000E07FFFFF9F7C0C
S1134A900000E03F0000F0BFFFFFEF7F0A46014641
S1134AA00248034B0068FFF7FFB900BF001E002057
S1134AB0681E00202DE9F74F03690C69A3420746DD
S1134AC0C0F28180013C01F1140800F1140505EBEA
S1134AD08403019358F8243055F8242001339A4272
S1134AE04FEA840B08EB8409B2FBF3F631D34FF0A1
S1134AF0000E4046AC46F24650F8042B93B206FB37
S1134B0003E34FEA134E9BB2AAEB0303DCF800A0C5
S1134B10120C13FA8AF306FB02E20093009B4FEA9D
S1134B20124E92B2C2EB1A4202EB2342BDF800309D
S1134B30814543EA02434CF8043B4FEA224ADBD264
S1134B4055F80B302BB9019B043B9D421A462ED3DA
S1134B503C61384601F0F8FE002824DB0136284683
S1134B604FF0000C58F8042BD0F800E093B2ACEBF3
S1134B700303120C13FA8EF3C2EB1E4202EB234220
S1134B809BB243EA0243C14540F8043B4FEA224C3E
S1134B90E8D255F8242005EB840322B9043B9D4256
S1134BA01A460AD33C61304603B0BDE8F08F126860
S1134BB0043B002ACCD1013CC7E71268043B002A1D
S1134BC0F0D1013CEBE70020EEE70000000000001C
S1134BD02DE9F04F2DED048B456A93B00446DDF8C2
S1134BE08C8016461F4692469B4675B9102001F0EC
S1134BF06FFB0246606220B9A94BEA21A94802F082
S1134C006DFBC0E901550560C560636A196851B15F
S1134C105A684A60012393408B60204601F008FCE7
S1134C20636A00221A603B1EAABF002323F0004BD4
S1134C30C8F800309C4BBCBF0122C8F8002033EAFE
S1134C400B031BD1229A42F20F731360CBF31303AD
S1134C50334300F09685249B63B9944B22E0944B34
S1134C6004930833249A1360049813B0BDEC048BA6
S1134C70BDE8F08F8D4B04930333F3E70022002348
S1134C805046594603F0DAF84BEC19AB804658B15C
S1134C90229A01231360249B002B00F06F85854822
S1134CA01860431E0493DFE710AB019311AB00932C
S1134CB052465B46204601F067FFCBF30A5508EEE7
S1134CC0100A002D00F0848019EE903AC3F3130308
S1134CD043F07F57564647F44017A5F2FF35CDF809
S1134CE03880754B002230463946FEF705F966A335
S1134CF0D3E9002302F03AFE65A3D3E90023FEF7CB
S1134D00FDF8064628460F46FEF744FA62A3D3E9A7
S1134D10002302F02BFE02460B4630463946FEF7CE
S1134D20EDF806460F4603F0D1F800220390002365
S1134D303046394603F08CF850B10398FEF72AFA4E
S1134D4032463B4603F07AF810B9039B013B0393C8
S1134D50039B162B5AD8039A584B03EBC203D3E98F
S1134D60002351EC190B03F073F8002850D0039B77
S1134D70013B039300230C93109B5D1B6B1E089354
S1134D8045BFC5F101030793002300234CBF0893DB
S1134D900793039B002B3DDB089B039A0B92134460
S1134DA0089300230993209B092B00F28B80052B89
S1134DB0C4BF043B2093209BA3F10203CCBF002576
S1134DC00125032B00F28980DFE803F02D3A3859DE
S1134DD0DDE910531D4405F23243202BC1BFC3F15A
S1134DE0400305F212400BFA03F326FA00F0DABF8F
S1134DF0C3F1200306FA03F01843FEF7BBF90123BD
S1134E000646A1F1F877013D0E936AE70123B2E764
S1134E100C90B1E7079B039A9B1A0793534209939B
S1134E2000230B93BFE700230A93219B002B57DC3D
S1134E300123CDE905331A4621920CE00123F3E75F
S1134E400023219A0A93039B134405930133012BF6
S1134E500693B8BF0123606A00224260042202F173
S1134E6014069E4241683FD9204601F0A1FA0490FD
S1134E7000283DD1124B02464FF4D571BEE6012302
S1134E80DFE700BFAFF3008061436F63A787D23FC2
S1134E90B3C8608B288AC63FFB799F501344D33F25
S1134EA0AD820000C48200000000F07FA9820000EF
S1134EB0A08200002D8200000000F83FF88400006A
S1134EC0428300000125002320930A954FF0FF330D
S1134ED0CDE9053300221223AEE701230A93F5E757
S1134EE0219BCDE90533B6E7013141605200B6E7B5
S1134EF0636A049A1A60069B0E2B00F29D80002DB3
S1134F0000F09A80039B002B32DDB74A03F00F03B5
S1134F1002EBC303D3E90089039BD8054FEA2317A7
S1134F2016D5B24B51EC190BD3E9082302F048FE15
S1134F3007F00F0782468B460325AC4E57B942460D
S1134F404B465046594602F03BFE82468B4628E0CB
S1134F500225F2E7F90708D540464946D6E9002379
S1134F6002F004FD0135804689467F100836E5E7E6
S1134F7000F09B80039B9D4F5E429B4B06F00F020B
S1134F8003EBC203D3E9002351EC190B02F0EEFC4E
S1134F90361182468B4600230225002E7AD1002B3F
S1134FA0D3D10C9B002B00F08280914B0022504601
S1134FB0594602F04DFF002879D0069B002B76D08D
S1134FC0059B002B36DD039B504659465F1E00228D
S1134FD0884B02F0CBFC059E82468B460135284661
S1134FE0FEF7D8F852465B4602F0C0FC824B002222
S1134FF0FDF784FFD046D9468246A1F1507B002EAE
S113500058D17E4B002240464946FDF775FF524673
S11350105B468046894602F039FF002840F09582BD
S113502052460BF100434046494602F011FF002866
S113503040F089825BEC19AB119B002BC0F24881D4
S1135040039A0E2A00F34481674B03EBC203D3E9AE
S11350500089219B002B80F2D580069B002B00F356
S1135060D18040F06F82654B00224046494602F0F1
S11350707DFC52465B4602F0FFFE069E3746002842
S113508040F04582049D312305F8013B039B013325
S1135090039340E2F20705D5D7E9002302F066FC4A
S11350A0013501237610083777E7022579E7039F56
S11350B0069E94E704994C4B31440D910A9903EBF5
S11350C0C60353E90223002943D04D49002002F0CE
S11350D077FD52465B46FDF70FFF049D82468B46E3
S11350E04946404602F0F2FE0646FEF753F80246F1
S11350F00B4640464946FDF7FFFE303605F8016B86
S113510052465B468046894602F0A2FE002863D1DF
S113511042464B4636490020FDF7EEFE52465B46BA
S113512002F096FE002840F0B5800D9B9D4281D090
S1135130304B00225046594602F018FC2D4B824653
S11351408B4640464946002202F010FC80468946C0
S1135150C6E75046594602F009FC0D9B049D0F9387
S113516082468B464946404602F0B0FE0646FEF7AC
S113517011F8303602460B4640464946FDF7BCFE60
S113518005F8016B0D9B9D42804689464FF0000255
S113519024D11B4B50465946FDF7B0FE02460B4640
S11351A04046494602F072FE002873D152465B46DF
S11351B013490020FDF7A0FE02460B46404649462F
S11351C002F046FE00283FF435AF0F9D6B1E0F938F
S11351D015F8013C302BF8D0039749E0054B02F059
S11351E0C5FB80468946BDE7F8840000D0840000F2
S11351F00000F03F0000244000001C400000144068
S11352000000E03F049D56465F4642464B4630460A
S1135210394602F0D5FC02F059FE8246FDF7BAFF8A
S113522042464B4602F0A2FB02460B463046394644
S11352300AF13006FDF760FE05F8016B049E069F37
S1135240AE1BB74202460B4635D1FDF757FE424628
S11352504B4606460F4602F019FED0B942464B466D
S11352603046394602F0EAFD10B11AF0010F10D1B0
S1135270204618EE101A01F0DBF8002303982B7077
S1135280229B01301860249B002B3FF4EDAC1D6081
S1135290EAE4039F2B461D4613F8012D392A06D153
S11352A0049A9A42F7D10499302201370A701A7885
S11352B001321A7090E7A64B002202F057FB00223D
S11352C0002306460F4602F0B9FD00289DD0CFE723
S11352D00A9A002A00F0D780209A012A00F3BA80A3
S11352E00E9A002A00F0B28003F23343099E079D10
S11352F0079A1A440792089A01211A4420460892F0
S113530001F098F90746002D0CDD089B002B09DD00
S1135310AB42079AA8BF2B46D21A0792089AED1AF5
S1135320D31A0893099B1BB30A9B002B00F0AF8090
S1135330002E13DD39463246204601F03BFA18EEC2
S1135340102A01460746204601F08AF918EE101A81
S11353508046204601F06CF808EE108A099B9A1BDF
S113536006D018EE101A204601F024FA08EE100AAE
S11353700121204601F05EF90B9B002B064640F309
S113538088801A460146204601F014FA209B012B1E
S1135390064640F381804FF00008336906EB83032F
S11353A0186901F0F7F8C0F12000089B184410F0C8
S11353B01F0000F09280C0F12003042B40F38A8088
S11353C0C0F11C00079B03440793089B0344054456
S11353D00893079B002B07DD18EE101A1A46204687
S11353E001F042FA08EE100A089B002B05DD314655
S11353F01A46204601F038FA06460C9B002B6ED064
S113540018EE100A314601F09FFA002867DA039B70
S1135410013B18EE101A03930A220023204601F0E0
S113542029F80A9B08EE100A002B00F0B181002332
S113543039460A22204601F01DF8059B002B074639
S113544000F38E80209B022B51DC89E0109BC3F17A
S113545036034BE7069B5E1E099BB342BFBF099B05
S11354600996F21A0B9BB6BF9B189E1B0B93069BC7
S1135470B8BF0026002BB7BFDDE90623DDE90635FA
S11354809D1A002334E7099E079D0A9F3BE7099A6A
S113549067E7209B012B18DCBAF1000F15D1CBF381
S11354A0130393B92BF000431B0D1B0583B1079B1A
S11354B001330793089B013308934FF001080B9BBA
S11354C0002B7FF46AAF01206FE74FF00008F6E786
S11354D09846F4E73FF47DAF18461C3072E7069B0C
S11354E0002B37DC209B022B34DD069B0593059BA8
S11354F06BB931460522204600F0BCFF0146064642
S113550018EE100A01F020FA00283FF7BBAD219BEA
S1135510049DDB4303934FF000083146204600F01E
S113552087FF002F3FF4A4AEB8F1000F05D0B845B3
S113553003D04146204600F07BFF3946204600F068
S113554077FF95E600263746E1E70397374699E566
S1135550000024400A9B002B00F0CA80069B0593A0
S1135560002D05DD39462A46204601F07DF907461F
S1135570B8F1000F5BD07968204600F019FF0546AA
S113558028B9874B024640F2EA21FFF737BB3A6954
S11355900232920007F10C010C30FDF7F1FE0122FA
S11355A02946204601F060F9049B03F10109DDE975
S11355B00423134408930AF00103B84607930746EB
S11355C0314618EE100AFFF775FA4146059000F1CE
S11355D0300A18EE100A01F0B7F93A46069031463F
S11355E0204601F0CDF9C26809F1FF3B054602BB34
S11355F0014618EE100A01F0A7F902462946204692
S1135600099200F015FF209B099A43EA0201079BC7
S11356100B434D460FD1BAF1390F2AD0069B002B0C
S113562002DD059B03F1310A8BF800A075E73846CB
S1135630BAE70122E2E7069B002B04DB20990B4327
S113564007990B4322D1002AEEDD18EE101A01222D
S1135650204601F009F9314608EE100A01F074F908
S1135660002803DCE0D11AF0010FDDD0BAF1390FC4
S1135670D7D139238BF800302B461D46013B15F852
S1135680012C392A71D001321A7046E7002A07DD4D
S1135690BAF1390FEDD00AF101038BF800303CE781
S11356A0089B09F801AC994547D018EE101A00235D
S11356B00A22204600F0DEFEB84508EE100A4FF03C
S11356C000034FF00A024146204606D100F0D2FE04
S11356D08046074609F1010972E700F0CBFE39461E
S11356E0804600230A22204600F0C4FE0746F1E764
S11356F0069B0593049D18EE100A3146FFF7DAF96C
S113570000F1300A049B05F801ABEA1A059B9342A9
S113571009DD18EE101A00230A22204600F0AAFE22
S113572008EE100AE7E7059B002BC8BF1D46049B43
S1135730D8BF01251D444FF0000818EE101A0122AD
S1135740204601F091F8314608EE100A01F0FCF809
S1135750002891DC02D11AF0010F8DD12B461D4691
S113576013F8012D302AFAD0D7E6049A9A4284D14C
S1135770039B0133039331231370CEE6094BFFF7E8
S113578091BA249B002B7FF46AAA074BFFF78ABACD
S1135790059B002BAEDC209B022B3FF7A8AEA9E7AC
S11357A0428300002C820000A08200008A892DE937
S11357B0F041054610070C4658D44B68002B05DC15
S11357C00B6C002B02DC0020BDE8F081E66A002EA1
S11357D0F9D0002312F480522F682B6032D0606D10
S11357E0A3895A0705D56368C01A636B0BB1236C90
S11357F0C01A00230246E66A216A2846B047431CC1
S1135800A38906D129681D292CD82A4ACA40D6075B
S113581028D500226260D9042269226004D5421C82
S113582001D12B6803B96065616B2F600029CAD070
S113583004F14403994202D0284601F087FA00207B
S11358406063C1E7216A01232846B047411CC7D1E0
S11358502B68002BC4D01D2B01D0162B01D12F6037
S1135860B1E7A38943F04003A381ADE70F69002F9B
S1135870A9D093070E6808BF4B690F6018BF0023B7
S1135880A6EB07088B60B8F1000F9CDD216AA66ABD
S113589043463A462846B047002806DCA38943F02D
S11358A04003A3814FF0FF308EE70744A8EB0008C4
S11358B0E9E700BF0100402038B50B6905460C46F6
S11358C013B90025284638BD18B183690BB900F017
S11358D087F8144B9C421BD16C68B4F90C30002B34
S11358E0EFD0626ED00704D4990502D4A06D00F005
S11358F088FC28462146FFF759FF636EDA07054600
S1135900E0D4A3899B05DDD4A06D00F07BFCD9E72E
S1135910054B9C4201D1AC68DFE7044B9C4208BFB5
S1135920EC68DAE774830000948300005483000079
S1135930002310B50446C0E90033C0E90433836092
S113594081814366C2818361194608225C30FDF778
S113595025FD054B6362054BA362054BE362054BD2
S11359602462236310BD00BFF171000013720000B4
S11359704B7200006F720000014900F0AFB800BF25
S1135980B958000070B568224D1E55430E4605F106
S1135990740101F047FA044640B10021C0E9001641
S11359A00C30A06005F16802FDF7F8FC204670BDDC
S11359B0014800F026BC00BFC9270020014800F0C0
S11359C021BC00BFC9270020014800F01ABC00BF59
S11359D0CA270020014800F015BC00BFCA270020D8
S11359E010B50446FFF7F0FFA3691BB1BDE81040F2
S11359F0FFF7F0BFC4E912332365134B134A1B6846
S1135A00A262A34204BF0123A361204600F020F850
S1135A106060204600F01CF8A060204600F018F8F2
S1135A200022E06004216068FFF782FFA068012281
S1135A300921FFF77DFFE06802221221FFF778FFBA
S1135A400123A361D2E700BF188200007959000046
S1135A50F8B50746FFF7ACFF1E4B1E68B36913B9D0
S1135A603046FFF7BDFF4836D6E90134013B03D584
S1135A7033680BB33668F7E7B4F90C50D5B9164B55
S1135A80E36004F15800656600F0BAFBFFF796FF87
S1135A90C4E90155C4E904552560A56108222946D5
S1135AA004F15C00FDF77AFCC4E90D55C4E9125514
S1135AB02046F8BD6834D9E704213846FFF762FF71
S1135AC0044630600028D5D1FFF778FF0C233B60F3
S1135AD0EEE700BF188200000100FFFF2DE9F84344
S1135AE00646884600F148040027D4E90195B9F137
S1135AF0010905D52468002CF7D13846BDE8F883A0
S1135B00AB89012B07D9B5F90E30013303D02946EF
S1135B103046C04707436835E9E70369B3EB611FC3
S1135B202DE9F0434FEA611200F1140445DD11F050
S1135B301F0104EB830604EB82050CD100F110076E
S1135B402946B14234D39B1A9B00EA1E964238BFC1
S1135B500023234415E054F82270C1F12008CF40FB
S1135B6005F1040EA1467645F44615D89A1A92001A
S1135B70043A0135AE4238BF0022A318A75007B13A
S1135B8004331A1BA3424FEAA20208BF0023026196
S1135B9008BF4361BDE8F083DCF800C00CFA08FCE0
S1135BA04CEA070749F8047B5EF8047BCF40DAE748
S1135BB051F804CB47F804CFC3E72346E1E7A0F14B
S1135BC03003092B02D82038C0B27047A0F161031A
S1135BD0052B01D84738F7E7A0F14103052B01D87D
S1135BE02738F1E7002070472DE9F04F2DED028BA7
S1135BF089B008EE100A0493B44B1B68019318464D
S1135C008B469046FEF724F9019BDBF80020034401
S1135C10824613F8013C0593931CC2F1FF2202F55E
S1135C207F02FE32D1181F4613F8010B0091302871
S1135C30F8D0FFF7C4FF044600283AD10199524630
S1135C40384601F018FB0546002868D117F80A0009
S1135C5007EB0A06FFF7B3FF002862D03346187833
S1135C6030281F4603F10103F9D0FFF7A8FF0123F1
S1135C70B0FA80F46409354600933A461646013278
S1135C803078FFF79CFF0028F8D10199524630463E
S1135C9001F0F1FA80B94DB906EB0A052A46164619
S1135CA001323078FFF78BFF0028F8D1AD1BAD002F
S1135CB004E000242546E0E7002DF7D1337803F013
S1135CC0DF03502B3BD173782B2B2CD02D2B2ED0D4
S1135CD0711C4FF000090878FFF771FF431EDBB217
S1135CE0182B2CD8A0F1100211F8010FFFF767FF51
